:031B54006D6D00B4
:0C1AC100C109040800000000020C000035
:101B1400E4F592F591F596F595F5B2F5B1F5CAF5BA
:021B2400C922D4
:10120100E4FF7B01758901C2B2900000120F120048
:1012110000000090000C120F1200000000C209D261
:10122100AFD2A9E4F58CF58AD2B27F14DFFEC2B247
:1012310030B3FDE4F58CF58AD28CEB602630B30334
:101241003009F7C28CAF8CE4FCFDFE900000120F58
:1012510006AF8AE4FCFDFE90000C120F06D28CE46E
:10126100FB80D73009FDE4FF7E01FDFC900000E02A
:10127100F8A3E0F9A3E0FAA3E0FB120DE990000C5A
:10128100E0F8A3E0F9A3E0FAA3E02FFFEA3EFEE9CC
:101291003DFDE83C8F0B8E0A8D09F508E47F587EF1
:1012A10001FDFCAB0BAA0AA909A808120DE9E47B10
:1012B100D07A07F9F8120E748E0C8F0DC3E50D94D8
:1012C1001EE50C9400400BD3E50D9484E50C9403CA
:0B12D1004005E4F50CF50DAE0CAF0D70
:0112DC0022EF
:1012DD00E4FF7B01758901C293900004120F120087
:1012ED00000000900010120F1200000000C209D281
:1012FD00AFD2A9E4F58CF58AD2937F14DFFEC293A9
:10130D003092FDE4F58CF58AD28CEB602630920399
:10131D003009F7C28CAF8CE4FCFDFE900004120F77
:10132D0006AF8AE4FCFDFE900010120F06D28CE48D
:10133D00FB80D73009FDE4FF7E01FDFC900004E049
:10134D00F8A3E0F9A3E0FAA3E0FB120DE990001079
:10135D00E0F8A3E0F9A3E0FAA3E02FFFEA3EFEE9EF
:10136D003DFDE83C8F0B8E0A8D09F508E47F587E14
:10137D0001FDFCAB0BAA0AA909A808120DE9E47B33
:10138D00D07A07F9F8120E748E0C8F0DC3E50D94FB
:10139D001EE50C9400400BD3E50D9484E50C9403ED
:0B13AD004005E4F50CF50DAE0CAF0D93
:0113B8002212
:1013B900E4FF7B01758901C295900008120F1200A4
:1013C900000000900014120F1200000000C209D2A0
:1013D900AFD2A9E4F58CF58AD2957F14DFFEC295C8
:1013E9003094FDE4F58CF58AD28CEB6026309403B9
:1013F9003009F7C28CAF8CE4FCFDFE900008120F97
:1014090006AF8AE4FCFDFE900014120F06D28CE4AC
:10141900FB80D73009FDE4FF7E01FDFC900008E068
:10142900F8A3E0F9A3E0FAA3E0FB120DE990001498
:10143900E0F8A3E0F9A3E0FAA3E02FFFEA3EFEE912
:101449003DFDE83C8F0B8E0A8D09F508E47F587E37
:1014590001FDFCAB0BAA0AA909A808120DE9E47B56
:10146900D07A07F9F8120E748E0C8F0DC3E50D941E
:101479001EE50C9400400BD3E50D9484E50C940310
:0B1489004005E4F50CF50DAE0CAF0DB6
:011494002235
:03000B00021B5184
:031B5100D2093284
:100F7900E4F529F52A121B147F031218117F0512B3
:100F89001811D2CD1212017C007D64120D947E00DD
:100F99007F0ACFCDCFCECCCE120D948C228D2312C9
:100FA90012017C007D64120D947E007F0ACFCDCFA3
:100FB900CECCCE120D948E248F251212017C007D89
:100FC90064120D948E268F27AB27AA26E4FD7F0293
:100FD900121886AB25AA247D0A7F02121886AB2334
:100FE900AA227D147F021218861212DD7C007D640C
:100FF900120D947E007F0ACFCDCFCECCCE120D94A8
:101009008C228D231212DD7C007D64120D947E00EA
:101019007F0ACFCDCFCECCCE120D948E248F251240
:1010290012DD7C007D64120D948E268F27AB27AAD2
:1010390026E4FD7F04121886AB25AA247D0A7F04C5
:10104900121886AB23AA227D147F04121886121364
:10105900B97C007D64120D947E007F0ACFCDCFCE7E
:10106900CCCE120D948C228D231213B97C007D6491
:10107900120D947E007F0ACFCDCFCECCCE120D9427
:101089008E248F251213B97C007D64120D948E264F
:101099008F27AB27AA26E4FD7F06121886AB25AA5F
:1010A900247D0A7F06121886AB23AA227D147F06A7
:1010B900121886E4F5287550FF75511B755254F5C1
:1010C90053F554F5557B017D027F1E121665755047
:1010D900FF75511B755254755300755400755500B1
:1010E9007B017D047F1E1216657550FF75511B75B6
:1010F90052547553007554007555007B017D067F68
:101109001E121665C2CD7F32121B26D2CD7F321236
:051119001B26020F8DF2
:0F1B26007D527C03ED1D70011C144C70F7DFF134
:011B3500228D
:061ACD00010E00011101F1
:1019CE00121927AF0E1219DFE4FD7F01121927AF8E
:0119DE000EFA
:1019DF00AD071FED600B7E01EED3940040F21E8029
:0119EF00F700
:0119F00022D4
:101927005307015305018F0F8D10EF7008ED7005F8
:10193700C291C29022EF7008BD0105C291D29022D8
:10194700BF0108ED7005D291C29022D291D29022A8
:05000300A291E433FFAF
:0100080022D5
:101A8C001219D6E4FDFF1219CEE4FC1219D67D0111
:0A1A9C001219D80CBC1CF4121A51E8
:011AA600221D
:0100090022D4
:1018F600AD101219D87D017F01121927120003EFCE
:101906007002FF22AF0E1219DF7D01E4FF121927C4
:10191600120003EF60037F0022AF0E1219DF7F0172
:01192600229E
:101A5100AF0E1219DFAD10E4FF1219DA7D01E4FFB8
:0F1A61001219DA7D017F01121927AF0E0219DF6A
:10195700AC07E4FDAF0F1219DAAF04E4FD1219DA90
:10196700AF047D011219DAAF04E4FD1219DAE4FDC0
:0A1977007F01121927AF0E0219DFDD
:101A7000E4FDAF0F1219CE7D011219D87F021219A1
:0B1A8000DF120003AC071219D1AF0405
:011A8B002238
:0C1B3600121A70EF60037F00227F012272
:101B01007D01AF0F1219DAE4FDAF0F121927AF0EE5
:031B11000219DFD7
:051B4200E4FF02195749
:051B47007F01021957A7
:10179600E4FCAF0E1219DFE4FDAF0F1219DAE4FB19
:1017A6001219D17D011219D8120003AA07AF0E1221
:1017B60019DFC374079BFFEAA807088002C333D862
:0D17C600FCFA42040BBB08D81219D6AF0480
:0117D30022F3
:02184D00AC07E6
:10184F00AF0E1219DFE4FDAF0F1219DA7B07ECA808
:10185F0003088002C313D8FCFAFFE4FD1219DAAFB4
:10186F00027D011219DAAF02E4FD1219DA1BC3EB84
:06187F006480948050D843
:011885002240
:031B570025640002
:10181100EF14601514601714601914601E14601F12
:1018210024057022121AEC8020121AD7801B12187C
:10183100BF801612111E121AD780007F0C80027F02
:0C18410010121B4C80037F00227F01224C
:101665008F4D8D4EEB14601D1460291460352403D5
:10167500705FAB50AA51A952120D3CFBAD4EAF4D58
:10168500121495804FAB50AA51A952AD4EAF4D12D1
:1016950017D48040AB50AA51A952AD4EAF4D12158B
:1016A500438031AB53AA54A955900001120D55251D
:1016B5004DFBC003AB53120D3C254EF55985505AD1
:1016C50085515B85525CD003AD4EAF4D1216DC8063
:0716D500037F00227F0122C8
:081886008F2B8D2CAF03AE0285
:10188E007550FF75511B7552578E538F547B007ACE
:10189E0000792D120A3C75500075510075522D7548
:1018AE0053007554007555007B01AD2BAF2C0216FD
:0118BE0065C4
:10000E000000000000000000002F000000000700AC
:10001E00070000147F147F1400242A7F2A12006226
:10002E0064081323003649552250000005030000D2
:10003E0000001C224100000041221C000014083E5A
:10004E0008140008083E0808000000A06000000820
:10005E000808080800006060000000201008040274
:10006E00003E5149453E0000427F40000042615132
:10007E004946002141454B31001814127F100027CC
:10008E0045454539003C4A4949300001710905038F
:10009E0000364949493600064949291E00003636C0
:1000AE000000000056360000000814224100001423
:1000BE001414141400004122140800020151090600
:1000CE0000324959513E007C1211127C007F494981
:1000DE004936003E41414122007F4141221C007FB2
:1000EE0049494941007F09090901003E4149497AC0
:1000FE00007F0808087F0000417F4100002040413A
:10010E003F01007F08142241007F40404040007FA5
:10011E00020C027F007F0408107F003E4141413EE9
:10012E00007F09090906003E4151215E007F091931
:10013E0029460046494949310001017F0101003F2E
:10014E004040403F001F2040201F003F4038403FAE
:10015E000063140814630007087008070061514912
:10016E00454300007F41410000552A552A550000A5
:10017E0041417F0000040201020400404040404023
:10018E00000001020400002054545478007F4844BB
:10019E00443800384444442000384444487F0038F2
:1001AE005454541800087E0901020018A4A4A47C1B
:1001BE00007F080404780000447D400000408084E5
:1001CE007D00007F102844000000417F4000007C2D
:1001DE0004180478007C0804047800384444443839
:1001EE0000FC242424180018242418FC007C080485
:1001FE00040800485454542000043F444020003C5E
:10020E004040207C001C2040201C003C4030403CE4
:10021E00004428102844001CA0A0A07C0044645474
:10022E004C441414141414140000000000000000B8
:10023E000000000000000000000000F800000000B8
:10024E00000000333000000000100C06100C0600F9
:10025E00000000000000000040C07840C078400060
:10026E00043F04043F040400007088FC08300000C2
:10027E00001820FF211E0000F008F000E01800001A
:10028E0000211C031E211E0000F0088870000000D3
:10029E001E2123241927211010160E000000000025
:1002AE000000000000000000000000E01804020042
:1002BE00000000071820400000020418E0000000B3
:1002CE000040201807000000404080F080404000B1
:1002DE000202010F01020200000000F00000000007
:1002EE000101011F010101000000000000000000DB
:1002FE0080B0700000000000000000000000000050
:10030E0000010101010101010000000000000000D8
:10031E000030300000000000000000008060180473
:10032E00006018060100000000E010080810E00050
:10033E00000F102020100F00001010F80000000019
:10034E000020203F20200000007008080888700060
:10035E0000302824222130000030088888483000E0
:10036E000018202020110E000000C02010F8000000
:10037E0000070424243F240000F808888808080099
:10038E000019212020110E0000E0108888180000AE
:10039E00000F112020110E0000380808C838080080
:1003AE000000003F00000000007088080888700000
:1003BE00001C222121221C0000E010080810E00081
:1003CE000000312222110F00000000C0C00000000A
:1003DE00000000303000000000000080000000002F
:1003EE000000806000000000000080402010080027
:1003FE0000010204081020004040404040404000F0
:10040E0004040404040404000008102040800000CA
:10041E000020100804020100007048080808F000CF
:10042E000000003036010000C030C828E810E0009F
:10043E000718272423140B000000C038E00000002A
:10044E00203C23020227382008F888888870000094
:10045E00203F202020110E00C03008080808380068
:10046E00071820202010080008F808080810E000DF
:10047E00203F202020100F0008F88888E808100080
:10048E00203F20202320180008F88888E808100054
:10049E00203F200003000000C0300808083800008C
:1004AE0007182020221E020008F808000008F8088D
:1004BE00203F210101213F20000808F80808000014
:1004CE000020203F2020000000000808F808080047
:1004DE00C08080807F00000008F888C028180800BF
:1004EE00203F20012638200008F8080000000000F8
:1004FE00203F20202020300008F8F800F8F80800EF
:10050E00203F003F003F200008F830C00008F808E8
:10051E00203F200007183F00E01008080810E000F8
:10052E000F10202020100F0008F808080808F0000F
:10053E00203F210101010000E01008080810E00032
:10054E000F18242438504F0008F8888888887000C7
:10055E00203F2000030C3020007088080808380067
:10056E000038202121221C00180808F8080818005D
:10057E000000203F2000000008F808000008F808DE
:10058E00001F202020201F000878880000C838088F
:10059E00000007380E010000F80800F80008F80007
:1005AE00033C0700073C03000818688080681808A1
:1005BE0020302C03032C30200838C800C83808001F
:1005CE000000203F2000000010080808C83808006E
:1005DE002038262120201800000000FE0202020012
:1005EE000000007F40404000000C30C000000000C2
:1005FE00000000010638C00000020202FE000000EA
:10060E00004040407F00000000000402020204008F
:10061E0000000000000000000000000000000000CC
:10062E0080808080808080800002020400000000B4
:10063E0000000000000000000000808080800000AC
:10064E000019242222223F2008F80080800000009A
:10065E00003F112020110E0000000080808000005D
:10066E00000E112020201100000000808088F8006C
:10067E00000E112020103F2000008080808000009E
:10068E00001F222222221300008080F08888881802
:10069E000020203F2020000000008080808080000D
:1006AE00006B94949493600008F8008080800000A2
:1006BE00203F210000203F2000809898000000007D
:1006CE000020203F202000000000008098980000AD
:1006DE0000C08080807F000008F8000080808000CD
:1006EE00203F24022D302000000808F800000000F2
:1006FE000020203F202000008080808080808000AD
:10070E00203F20003F20003F80800080808000003E
:10071E00203F210000203F200000808080800000CC
:10072E00001F202020201F008080008080000000FD
:10073E0080FFA12020110E0000000080808080002C
:10074E00000E112020A0FF8080808000808080001D
:10075E0020203F212000010000008080808080004A
:10076E000033242424241900008080E080800000BF
:10077E000000001F2020000080800000008080000C
:10078E00001F202020103F2080808000008080806D
:10079E0000010E30080601008080008000808080FD
:1007AE000F300C030C300F00008080008080800022
:1007BE000020312E0E31200080808000008080804D
:1007CE0080818E70180601000080808080808000FD
:1007DE000021302C2221300000000000807C02021B
:1007EE0000000000003F404000000000FF0000003D
:1007FE0000000000FF0000000002027C80000000EC
:10080E000040403F00000000000601010202040407
:10081E000000000000000000D0DC000060F0FE6E62
:10082E00F4D0FCFCFCE8B8200000004074770737D9
:10083E003F2F33372D1D3F766000D3EE000070380A
:10084E0090D0D2D6DE5C4838381810000000020274
:10085E000242C2FF7F03030103030000BFC6808074
:10086E0080F0F8FC5C4450D0FEFEFC000000080C4A
:10087E000E073F3F030302023FFF7F010100BCBC96
:10088E0000004040FEFE242020FCFCB410100000AE
:10089E00040404267F7F2123371D1F3F3120604033
:1008AE00D6B50080C0F8FC1C24B0F0FCFCD0D010F3
:1008BE0000000203017F7F60603F3F2F2F3F3F20EC
:1008CE002000B5C3002030F8FC6C08B8F8FCF4BC6E
:1008DE00BC1C00000C0E073F3F04040E5E4AFFFFD7
:1008EE0002020200D3B500004040FCFCA0F0F0D0A4
:1008FE00F8F878F8F800040416333F3F381F0F025B
:10090E003F3F617F7F00D3D00010101090D0F8BE13
:10091E00DED0D8D80808180000080C07033F3F0B9C
:10092E004AEBFF7F00000000CAB10030F0F0F0F09B
:10093E0070404044FCFC40404000001E1F1F1F1F23
:10094E00000323627F7F00000000BCE40000F0F48F
:10095E00FCCCC868E8E8EC0CFCFC000000003F3F53
:10096E0003070705070F27607F7F0000BFB500F064
:10097E000888A8A8A8AEF8A8A8A8A8E88080007F34
:10098E0080444AAA9202FF0A12324A878000D7F7A1
:10099E000080E01C00E01C08F88888888888080021
:1009AE0000017F0001000000FF1010101010100059
:1009BE00C1EC0020102C42840830E414149C141452
:1009CE00F4000001112161910E028F40300F1020B2
:0209DE00CF0048
:031AD30001120CF1
:101AA700EF4E60157DC87C00ED1DAA0470011C4A2D
:091AB70070F6EF1F70EA1E80E7D3
:011AC0002203
:031B5A000218F678
:031B5D00021A5118
:031B6000021B0164
:031B630002184D18
:1019F1008F63121B5A7F78121B63121B60E4FF1264
:101A01001B63121B60AF63121B63121B60021B5D21
:101A11008F63121B5A7F78121B63121B607F401267
:101A21001B63121B60AF63121B63121B60021B5D01
:101A3100F583E582255BF582E43583F583E493FF45
:021A41007D0125
:0E1A43008F62ED6003021A11AF621219F122D8
:1019A8008F61ED24B0FFE4FD121A43E56154F0C4E1
:1019B800540F4410FFE4FD121A43E561540F44012B
:0619C800FFE4FD021A43DA
:101AD700E4FD7F8D121A43E4FD7F14121A43E4FDDF
:051AE7007FAF021A436D
:101AEC00E4FD7F8D121A43E4FD7F10121A43E4FDCE
:051AFC007FAE021A4359
:1018BF00E4F52BE52B24B0FFE4FD121A43E4FDFF02
:1018CF00121A43E4FD7F10121A43E4F52C7D01E454
:1018DF00FF121A43052CE52CC3948040F0052BE52D
:0618EF002BC3940840CD5C
:0118F50022D0
:041495008F5C8D5D7E
:10149900E4F55EF55FEB24E0F55EE55CD3947F400F
:1014A90007E4F55C055D055DE51264107061AD5DED
:1014B900AF5C1219A8E4F55F75F010E55EA4255F2D
:1014C900F582E435F0F583E5822436F582E5833447
:1014D90002121A3C055FE55FC3940840DBE55D0431
:1014E900FDAF5C1219A8E4F55F75F010E55EA4255F
:1014F9005FF582E435F0F583E582243EF582E583E4
:101509003402121A3C055FE55FC3940840DB22AD43
:101519005DAF5C1219A8E4F55F75F006E55EA424D9
:101529000EF582E5F03400F583E582255F121A375E
:09153900055FE55FC3940640E084
:011542002286
:0A17D4008F568D578B588A59895A99
:1017DE00E4F55BAB58AA59A95A855B827583001252
:1017EE000D55FB601DAD57AF561214957408255656
:1017FE00F556D394784007E4F55605570557055B23
:02180E0080D187
:0118100022B5
:061741008B5E8A5F8960E7
:10174700E4FFAB5EAA5FA960120D3CFE75F022EFC5
:10175700A42426F582E5F03408F583E493B506283A
:10176700900001120D55FE75F022EFA42427F58293
:10177700E5F03408F583E493B5060DAB61AA62A9D9
:0E17870063EF120D827F01220FBF14B67F00A8
:011795002231
:0A1543008F568D578B588A59895A2C
:10154D00E4F55CAB58AA59A95A120D3C607BE556DF
:10155D00255CFFAD571219A87561007562007563A2
:10156D005DAB58AA59A95A121741EF7002FF22E438
:10157D00F55B75F022E55DA42428F582E5F03408CD
:10158D00121A31055BE55BC3941040E6E556255C08
:10159D00FFE55704FD1219A8E4F55B75F022E55D32
:1015AD00A42438F582E5F03408121A31055BE55BA9
:1015BD00C3941040E67410255CF55C7402255AF551
:0B15CD005AE43559F5590215507F0112
:0115D80022F0
:0416DC008F568B5842
:1016E000E4F55DF55EE5595407700BE559131313E6
:1016F000541FF560800AE559131313541F04F56055
:101700008D60E560C395595037AD60AF561219A88A
:1017100085565FE55FC395585022AB5AAA5BA95C1A
:10172000055EE55EAE5D7002055D14F5828E831286
:101730000D55FF7D01121A43055F80D7056080C2F9
:011740002286
:10111E00007F647E00121AA7007F647E00121AA759
:10112E0000E4FD7FAE121A43E4FDFF121A43E4FD04
:10113E007F10121A43E4FD7F40121A43E4FD7F81B3
:10114E00121A43E4FD7FCF121A43E4FD7FA1121A57
:10115E0043E4FD7FC8121A43E4FD7FA6121A43E44E
:10116E00FD7FA8121A43E4FD7F3F121A43E4FD7F70
:10117E00D3121A43E4FDFF121A43E4FD7FD5121A6F
:10118E0043E4FD7F80121A43E4FD7FD9121A43E433
:10119E00FD7FF1121A43E4FD7FDA121A43E4FD7F5C
:1011AE0012121A43E4FD7FDB121A43E4FD7F401254
:1011BE001A43E4FD7F20121A43E4FD7F02121A4304
:1011CE00E4FD7F8D121A43E4FD7F14121A43E4FDF1
:1011DE007FA4121A43E4FD7FA6121A43E4FD7FAFEB
:1011EE00121A43E4FD7FAF121A431218BFE4FDFF3B
:0311FE000219A82B
:051B4C008F127F012251
:030000000215D90D
:0C15D900787FE4F6D8FD758163021620CF
:100D3C00BB010689828A83E0225002E722BBFE02B5
:090D4C00E32289828A83E49322E8
:100D5500BB010CE58229F582E5833AF583E0225053
:100D650006E92582F8E622BBFE06E92582F8E2229D
:0D0D7500E58229F582E5833AF583E49322B7
:100D8200BB010689828A83F0225002F722BBFE0150
:020D9200F3224A
:100D9400BC000BBE0029EF8DF084FFADF022E4CC43
:100DA400F875F008EF2FFFEE33FEEC33FCEE9DEC0C
:100DB400984005FCEE9DFE0FD5F0E9E4CEFD22ED52
:100DC400F8F5F0EE8420D21CFEADF075F008EF2F9C
:100DD400FFED33FD4007985006D5F0F222C398FD8D
:050DE4000FD5F0EA222A
:100DE900E88FF0A4CC8BF0A42CFCE98EF0A42CFCA9
:100DF9008AF0EDA42CFCEA8EF0A4CDA8F08BF0A427
:100E09002DCC3825F0FDE98FF0A42CCD35F0FCEB85
:100E19008EF0A4FEA9F0EB8FF0A4CFC5F02ECD394A
:0F0E2900FEE43CFCEAA42DCE35F0FDE43CFC22B7
:100E380075F008758200EF2FFFEE33FECD33CDCC71
:100E480033CCC58233C5829BED9AEC99E5829840F4
:100E58000CF582EE9BFEED9AFDEC99FC0FD5F0D6D1
:100E6800E4CEFBE4CDFAE4CCF9A88222B800C1B9FB
:100E78000059BA002DEC8BF084CFCECDFCE5F0CB39
:100E8800F97818EF2FFFEE33FEED33FDEC33FCEB72
:100E980033FB10D703994004EB99FB0FD8E5E4F92D
:100EA800FA227818EF2FFFEE33FEED33FDEC33FC1A
:100EB800C933C910D7059BE99A4007EC9BFCE99A0E
:100EC800F90FD8E0E4C9FAE4CCFB2275F010EF2F53
:100ED800FFEE33FEED33FDCC33CCC833C810D70753
:100EE8009BEC9AE899400AED9BFDEC9AFCE899F88E
:0E0EF8000FD5F0DAE4CDFBE4CCFAE4C8F92221
:0C0F0600ECF0A3EDF0A3EEF0A3EFF0225E
:100F1200A8828583F0D083D082120F29120F291262
:100F22000F29120F29E473E493A3C583C5F0C58387
:100F3200C8C582C8F0A3C583C5F0C583C8C582C829
:010F4200228C
:1009E000E55C2450F8E6055C22784D30070278502B
:1009F000E475F001120F43020D3C2000EB7F2ED274
:100A0000008018EF540F2490D43440D4FF30040BEE
:100A1000EF24BFB41A0050032461FFE55D600215A6
:100A20005D0560E5607002055F30070D784DE47587
:100A3000F001120F43EF020D820219817403D207F5
:100A40008003E4C207F55C8B4D8A4E894FE4F55D67
:100A5000F55FF560E55D60077F20120A1B80F57584
:100A60005EFFC201C200C202C203C205C206C208C2
:100A70001209E9FF700D3007057F00120A2CAF60E4
:100A8000AE5F22B4255FC2D5C2041209E9FF24D0AB
:100A9000B40A00501A75F00A785D30D50508B6FF23
:100AA0000106C6A426F620D5047002D20380D924FC
:100AB000CFB41A00EF5004C2E5D204020C2CD201CC
:100AC00080C6D20080C0D20280BCD2D580BAD20506
:100AD00080B47F20120A1B2002077401B55D00401C
:100AE000F11209E0FF120A1B020A54D208D2068052
:100AF000951209E0FB1209E0FA1209E0F94A4B707D
:100B00000679FD7A0C7BFF20022EE55D602A7E00CF
:100B10008E82758300120D5560060EEE655E70F0D4
:100B2000C2D5EBC0E0EAC0E0E9C0E0EE120C73D041
:100B3000E0F9D0E0FAD0E0FB120D3CFF60AAEBC078
:100B4000E0EAC0E0E9C0E0120A1BD0E02401F9D0DD
:100B5000E03400FAD0E0FBE55E0460DCD55ED980CD
:100B6000877BFF7A0C796FD202809C7910800279A2
:100B700008C206C2088008D2D5790A8004790AC260
:100B8000D5E55E047002F55EE4FAFDFEFF1209E0B1
:100B9000FC7B082001131209E0FD7B1030000A12D3
:100BA00009E0FE1209E0FF7B20EC3382D592D5509C
:100BB00013C3E43000069FFFE49EFEE42001039D82
:100BC000FDE49CFCE4CBF8C201EC700CCFCECDCCA4
:100BD000E824F8F870F38017C3EF33FFEE33FEED2F
:100BE00033FDEC33FCEB33FB994002FB0FD8E9EB10
:100BF000300105F8D0E0C448B201C0E00AEC4D4E27
:100C00004F78207B0070C2EAB55E0040BCC0E012A5
:100C10000C75D0F0D0E0200104C4C0E0C4B201C023
:100C2000F0120A04D0F0D5F0EB020A54120F530A66
:100C3000F1530B6B580AC24C0ABE420B6F4F0B7735
:0F0C4000440B77490AD7430B7D550B61460B6177
:100C4F00450B61470D1D500AC62D0ACA2E0AED2B02
:100C5F000ACE230AEB200D062A0A864800000AE571
:100C6F003F3F3F00790AA2D5200314300509B91080
:100C7F00020404B9080104A2D52006025001042081
:100C8F0002689202B55D005034C0E07F2030031936
:100C9F007F30A20272067205500F120CCCC202C234
:100CAF0006C205C2087F30800F300503E9C0E0128D
:100CBF000A1B300503D0E0F9D0E0B55DCC30051745
:100CCF007F30B9100C120A1B7F583004077F7880D1
:100CDF0003B90803120A1B3002057F2D020A1B7F7E
:100CEF00202008F87F2B2006F322920280CF286E57
:100CFF00756C6C2900D2011209E03001F8C201783D
:100D0F005D30D50108F6020A862D50434958120965
:100D1F00E02403B405004001E4900D1893120A0C6F
:0D0D2F00743A120A0CD203755D04020B6BBE
:1015E500020F79E493A3F8E493A34003F68001F294
:1015F50008DFF48029E493A3F85407240CC8C33307
:10160500C4540F4420C8834004F456800146F6DFD5
:10161500E4800B0102040810204080901AC1E47E8A
:10162500019360BCA3FF543F30E509541FFEE493CA
:10163500A360010ECF54C025E060A840B8E493A391
:10164500FAE493A3F8E493A3C8C582C8CAC583CABC
:10165500F0A3C8C582C8CAC583CADFE9DEE780BE74
:011AD600000F
:100F4300FAE6FB0808E6F925F0F618E6CA3AF622AF
:100F5300D083D082F8E4937012740193700DA3A32D
:100F630093F8740193F5828883E473740293686041
:060F7300EFA3A3A380DF41
:10198100EFB40A07740D12198C740A309811A899D2
:10199100B8130CC2983098FDA899C298B811F630C6
:0719A10099FDC299F599229E
:00000001FF
